:020000040800F2
:10000000401B002051180008191500083D18000871
:100010003D1800083D1800083D18000800000000C9
:100020000000000000000000000000003D19000872
:100030003D18000800000000D9180008D12D000864
:10004000C11A0008C11A0008C11A0008C11A000824
:10005000C11A0008C11A0008C11A0008C11A000814
:10006000C11A0008C11A0008C11A0008C11A000804
:10007000C11A0008C11A0008C11A0008C11A0008F4
:10008000C11A0008C11A0008C11A0008C11A0008E4
:10009000C11A0008C11A0008C11A0008C11A0008D4
:1000A000C11A0008C11A0008C11A0008C11A0008C4
:1000B000C11A0008C11A0008C11A0008C11A0008B4
:1000C000C11A0008C11A0008C11A0008C11A0008A4
:1000D000C11A0008C11A0008C11A0008C11A000894
:1000E000C11A0008C11A0008C11A0008C11A000884
:1000F000C11A0008C11A0008C11A0008C11A000874
:10010000C11A0008C11A0008C11A0008C11A000863
:10011000C11A0008C11A0008C11A0008C11A000853
:10012000C11A0008C11A0008C11A0008C11A000843
:10013000C11A0008C11A0008C11A0008C11A000833
:10014000C11A0008C11A0008C11A0008C11A000823
:10015000C11A0008C11A0008C11A0008C11A000813
:10016000C11A0008C11A0008C11A0008C11A000803
:10017000C11A0008C11A0008C11A0008C11A0008F3
:10018000C11A0008C11A0008C11A0008C11A0008E3
:10019000C11A0008C11A0008C11A0008C11A0008D3
:1001A000C11A0008C11A0008C11A0008C11A0008C3
:1001B000C11A0008C11A0008C11A0008C11A0008B3
:0401C000C11A000858
:1001C40080F0004002E000BF81F0004142001FBF08
:1001D4005FEA410392EA030F7FEA226C7FEA236C11
:1001E4006AD04FEA1262D2EB1363C1BFD218414006
:1001F40048404140B8BF5B42192B88BF704710F09C
:10020400004F40F4000020F07F4018BF404211F03E
:10021400004F41F4000121F07F4118BF494292EAA6
:10022400030F3FD0A2F1010241FA03FC10EB0C00D2
:10023400C3F1200301FA03F100F0004302D549425F
:1002440060EB4000B0F5000F13D3B0F1807F06D30C
:1002540040084FEA310102F10102FE2A51D2B1F104
:10026400004F40EBC25008BF20F0010040EA0300F9
:100274007047490040EB0000013A28BFB0F5000F79
:10028400EDD2B0FA80FCACF1080CB2EB0C0200FA2F
:100294000CF0AABF00EBC25052421843BCBFD0407E
:1002A4001843704792F0000F81F4000106BF80F4F8
:1002B40000000132013BB5E74FEA41037FEA226CBB
:1002C40018BF7FEA236C21D092EA030F04D092F086
:1002D400000F08BF0846704790EA010F1CBF0020BA
:1002E400704712F07F4F04D1400028BF40F0004017
:1002F400704712F100723CBF00F50000704700F037
:10030400004343F0FE4040F4000070477FEA22625D
:1003140016BF08467FEA23630146420206BF5FEA2E
:10032400412390EA010F40F4800070474FF000032E
:1003340004E000BF10F0004348BF40425FEA000CF5
:1003440008BF704743F0964301464FF000001CE09D
:1003540050EA010208BF70474FF000030AE000BFF3
:1003640050EA010208BF704711F0004302D5404231
:1003740061EB41015FEA010C02BF844601460020A3
:1003840043F0B64308BFA3F18053A3F50003BCFABE
:100394008CF2083AA3EBC25310DB01FA02FC63446B
:1003A40000FA02FCC2F12002BCF1004F20FA02F272
:1003B40043EB020008BF20F00100704702F1200265
:1003C40001FA02FCC2F1200250EA4C0021FA02F2C6
:1003D40043EB020008BF20EADC7070474FF0FF0CCB
:1003E4001CEAD0521EBF1CEAD15392EA0C0F93EAC6
:1003F4000C0F6FD01A4480EA010C400218BF5FEA68
:1004040041211ED04FF0006343EA501043EA5111DA
:10041400A0FB01310CF00040B1F5000F3EBF4900D4
:1004240041EAD3715B0040EA010062F17F02FD2AD8
:100434001DD8B3F1004F40EBC25008BF20F00100BB
:10044400704790F0000F0CF0004C08BF49024CEAD2
:10045400502040EA51207F3AC2BFD2F1FF0340EA64
:10046400C250704740F400004FF00003013A5DDCD5
:1004740012F1190FDCBF00F000407047C2F1000216
:10048400410021FA02F1C2F1200200FA02FC5FEA03
:10049400310040F1000053EA4C0308BF20EADC704D
:1004A400704792F0000F00F0004C02BF400010F4BF
:1004B400000F013AF9D040EA0C0093F0000F01F06C
:1004C400004C02BF490011F4000F013BF9D041EA8E
:1004D4000C018FE70CEAD15392EA0C0F18BF93EA90
:1004E4000C0F0AD030F0004C18BF31F0004CD8D1BA
:1004F40080EA010000F00040704790F0000F17BF41
:1005040090F0004F084691F0000F91F0004F14D086
:1005140092EA0C0F01D142020FD193EA0C0F03D1DE
:100524004B0218BF084608D180EA010000F00040E1
:1005340040F0FE4040F40000704740F0FE4040F4BC
:10054400400070474FF0FF0C1CEAD0521EBF1CEA5B
:10055400D15392EA0C0F93EA0C0F69D0A2EB030279
:1005640080EA010C49024FEA402037D04FF0805313
:1005740043EA111143EA10130CF000408B4238BFD8
:100584005B0042F17D024FF4000C8B4224BF5B1AE6
:1005940040EA0C00B3EB510F24BFA3EB510340EA34
:1005A4005C00B3EB910F24BFA3EB910340EA9C00E2
:1005B400B3EBD10F24BFA3EBD10340EADC001B0152
:1005C40018BF5FEA1C1CE0D1FD2A3FF650AF8B42F6
:1005D40040EBC25008BF20F0010070470CF0004C03
:1005E4004CEA50207F32C2BFD2F1FF0340EAC2502E
:1005F400704740F400004FF00003013A37E792F0EF
:10060400000F00F0004C02BF400010F4000F013A4C
:10061400F9D040EA0C0093F0000F01F0004C02BF47
:10062400490011F4000F013BF9D041EA0C0195E7B0
:100634000CEAD15392EA0C0F08D142027FF47DAF49
:1006440093EA0C0F7FF470AF084676E793EA0C0F39
:1006540004D14B023FF44CAF08466EE730F0004C37
:1006640018BF31F0004CCAD130F000427FF45CAFC7
:1006740031F000437FF43CAF5FE700BF4FF0FF3C35
:1006840006E000BF4FF0010C02E000BF4FF0010C88
:100694004DF804CD4FEA40024FEA41037FEA226C51
:1006A40018BF7FEA236C11D001B052EA530C18BF73
:1006B40090EA010F58BFB2EB030088BFC81738BFD8
:1006C4006FEAE17018BF40F0010070477FEA226CC6
:1006D40002D15FEA402C05D17FEA236CE4D15FEAC2
:1006E400412CE1D05DF8040B704700BF84460846F6
:1006F4006146FFE70FB5FFF7C9FF002848BF10F1B7
:10070400000F0FBD4DF808EDFFF7F4FF0CBF0120FB
:1007140000205DF808FB00BF4DF808EDFFF7EAFF85
:1007240034BF012000205DF808FB00BF4DF808ED40
:10073400FFF7E0FF94BF012000205DF808FB00BF35
:100744004DF808EDFFF7D2FF94BF012000205DF8BB
:1007540008FB00BF4DF808EDFFF7C8FF34BF0120C8
:1007640000205DF808FB00BF4FEA4002B2F1FE4FE3
:100774000FD34FF09E03B3EB12620DD94FEA00235F
:1007840043F0004310F0004F23FA02F018BF404238
:1007940070474FF00000704712F1610F01D142021F
:1007A40005D110F0004008BF6FF0004070474FF0D3
:1007B4000000704742000ED2B2F1FE4F0BD34FF04F
:1007C4009E03B3EB126209D44FEA002343F00043C3
:1007D40023FA02F070474FF00000704712F1610FE6
:1007E40001D1420202D14FF0FF3070474FF00000B8
:1007F400704700BF53B94AB9002908BF00281CBF7D
:100804004FF0FF314FF0FF3000F00CB8ADF1080CA1
:100814006DE904CE00F008F8DDF804E0DDE9022318
:1008240004B07047704700BF2DE9F04786468C46F8
:100834000846089E154674461946002B40F0C280AF
:100844008542B2FA82F245D94AB1C2F1200300FAD4
:1008540002FC2EFA03F3954043EA0C0C94404FEA51
:10086400154EA8B2BCFBFEF8230C0EFB18CC08FBFB
:1008740000F943EA0C43994528D9EB1808F1FF37EE
:1008840004D2994502D9A8F102072B44A3EB09032A
:10089400A4B2B3FBFEFC0EFB1C330CFB00F044EAD9
:1008A4000344A04214D92C190CF1FF3304D2A04202
:1008B40002D9ACF102032C44241A43EA07401EB1C6
:1008C400D440002334607360BDE8F0874746DDE719
:1008D4006346F1E792BB431B01214FEA154EAFB2C9
:1008E400B3FBFEFC200C0EFB1C330CFB07F840EAA8
:1008F4000343984562D9EB180CF1FF3004D29845B4
:1009040002D9ACF102002B44A3EB0803A4B2B3FB5D
:10091400FEFC0EFB1C330CFB07F744EA0344A7421E
:100924004ED92C190CF1FF3304D2A74202D9ACF1F1
:1009340002032C44E41B43EA0040C0E7C2F1200355
:1009440020FA03F1954090402EFA03F303434FEA53
:10095400154EAFB2B1FBFEFC0EFB1C10190C0CFBC8
:1009640007F841EA0041884504FA02F422D96918DB
:100974000CF1FF3004D2884502D9ACF102002944BD
:10098400A1EB08019BB2B1FBFEFC0EFB1C110CFB9E
:1009940007F743EA01439F420ED9EB180CF1FF31EC
:1009A40004D29F4202D9ACF102012B44DB1B41EA81
:1009B400004192E76046E3E76146F7E76046A3E754
:1009C4006346B7E7834206D916B9002108467BE798
:1009D400C6E900E0F9E7B3FA83F78FB9834201D39C
:1009E400724508D8BEEB020460EB030301209C4669
:1009F4001EB9002168E73846FAE7C6E9004CF8E773
:100A0400C7F1200CBB4022FA0CF41C432EFA0CF163
:100A140020FA0CF3B84001434FEA14490EFA07F5E3
:100A2400B3FBF9F81FFA84FE09FB18300B0C08FB22
:100A34000EFA43EA00439A4502FA07F240D9E31852
:100A440008F1FF3004D29A4502D9A8F102002344E8
:100A5400A3EB0A0389B2B3FBF9F809FB183308FBCB
:100A64000EFE41EA03418E452CD9611808F1FF338B
:100A740004D28E4502D9A8F10203214443EA00407E
:100A8400A0FB0298A1EB0E014145CE46434602D39A
:100A940006D14D4504D2B9EB020E68EB04030138CC
:100AA400002EA6D0B5EB0E0261EB030101FA0CFC9B
:100AB40022FA07F34CEA0303F940C6E9003198E748
:100AC4004046C5E74346D9E74FF0804340685B6A38
:100AD400181A044B98429DBF40000323B0FBF3F067
:100AE40000207047009435772DE9F04F85B000233E
:100AF400DFF820A2884F8DF80B300646B3681B68D8
:100B0400002B00F0FD800DF10B01304698470028C2
:100B140040F0F680DAF80090B9F1000F00F0F080B0
:100B24009DF80B100D2902D00A2940F0BE803B68C5
:100B3400002BE3D0794CDFF8E8817A49D8F800B08B
:100B44000022E2544FF0804509226B6ACBF804304E
:100B5400204605F0C6FC50BB0390734903AA04F178
:100B6400090003F0D1FC01281FD10398431EB3F5FB
:100B7400966F0BD2FFF7DEFB6C4B0146186804F04E
:100B840087FA03996A4804F0ADFB02E0694804F06F
:100B9400A9FB4FF0804368485A6AD8F800305A607D
:100BA40000233B6004F09EFBA8E76448EFE7644938
:100BB4000D22204605F095FC58B95C4C2168894506
:100BC400E7D0484604F01EFA23685E48CAF80030AD
:100BD400DDE75D490922204605F083FCB0B95B4C92
:100BE40020688145D5D06B6ACBF8043004F08AFACA
:100BF400DAF80000216804F005FA2368CAF8003026
:100C0400D8F800306A6A52485A60C0E75149052250
:100C1400204605F066FC98B901904F4804F049F964
:100C24004E4A019B1268DAF80000D361D8F800300C
:100C34006A6A5A606A6A9A6000F06CFB4848A6E7E0
:100C440048490422204605F04CFC50B9484600F0BF
:100C540081FBD8F800306A6A5A606A6A42489A602E
:100C640095E742490522204605F03BFC40B9484639
:100C740000F080FBD8F800306A6A3D485A6086E785
:100C84003C490622204605F02CFC58B96B6ACBF887
:100C94000430484600F07EFBD8F800306A6A3648D3
:100CA4005A6074E7354821466DE7A1F120035E2BB5
:100CB40002D8304604F057F89DF80B30082B01D0C9
:100CC4007F2B12D13B68002B3FF418AF013B304619
:100CD40008213B6004F047F83046202104F043F833
:100CE4000821304604F03FF808E7A3F120025E2A09
:100CF40006D83A681E2A06D8511C396007498B5415
:100D040003F06CF9FAE600231D483B6004F0EAFAAC
:100D1400F6E700BF5403002050030020C006002063
:100D2400640300204A710008547100085C03002029
:100D3400577100088D71000898730008C871000885
:100D44000C7200081A72000844720008580300204C
:100D54004E720008767200084404002068030020E4
:100D64007C720008A6720008AB720008D4720008F6
:100D7400DA720008047300080B7300083673000865
:100D84006C7300080B4B1A6A90FAA0F3B3FA83F35E
:100D94009B000F2101FA03F390FAA0F0B0FA80F05F
:100DA40022EA03028000012383401343014A1362B1
:100DB400704700BF000002400B4BDA6890FAA0F3C2
:100DC400B3FA83F35B00032101FA03F390FAA0F072
:100DD400B0FA80F022EA0302400001238340134367
:100DE400014AD360704700BF000002400B4B9A6871
:100DF40090FAA0F3B3FA83F35B00032101FA03F33F
:100E040090FAA0F0B0FA80F022EA03024000022334
:100E140083401343014A9360704700BF00000240BF
:100E24000B4B1A6890FAA0F3B3FA83F35B00032127
:100E340001FA03F390FAA0F0B0FA80F022EA030278
:100E44004000022383401343014A1360704700BFEC
:100E54000000024030B5002285B00A230446CDE9E3
:100E64000022CDE90232406883681D6815B102ABE7
:100E74000E21A847606883683C21DB6898470028F6
:100E840002DA002005B030BD606883686A461B69D9
:100E94000E2198470028F4DB044B019890FBF3F0F3
:100EA400009B0A2202FB0300ECE700BFA0860100BE
:100EB40010B5064C206820B104F0CAF8206804F08C
:100EC40074F80021022003F013F9F3E7540300201F
:100ED40037B50025C0E90155284B0360284B1A6B30
:100EE40042F001021A631A6B02F001020192019AA4
:100EF4001A6C42F001021A641B6C03F001030093A4
:100F0400009B0446BFF34F8F0120FFF789FF0120A8
:100F1400FFF752FF0120FFF769FF0120FFF732FFBF
:100F24000220FFF77DFF0220FFF746FF0220FFF7B4
:100F34005DFF0220FFF726FF4FF080432046DA686A
:100F440022F04702DA609A6822F007029A609A68EF
:100F540042F003029A609A6942F4405242F030022D
:100F64009A611A6A42F002021A621A6842F0010295
:100F74001A605D62C4E9015503B030BD986C000885
:100F84000038024008B5024903F07FFF08BD00BFE6
:100F9400AA73000808B5022996BF034B034953F806
:100FA400211003F072FF08BD5C6C0008BA730008DE
:100FB4002DE9F04F9648974D974FDFF86082984E91
:100FC400DFF86092DFF860B2DFF860A28DB004F061
:100FD40089F9974803F03FFF964803F03CFF284601
:100FE40003F039FF384603F036FF934B934A1A60F7
:100FF40095E80300924A5A60DA600122914D1A740E
:1010040003F11402002482E8030040461C725C8150
:101014005C82DC612B60FFF75BFF8B4A8B4BC6F86D
:1010240000801360DFF828828A4B53608A4BC8F82B
:1010340000304B4697E80300884A43F8042B884F56
:10104400C8F804A083E8030096227F49584603F0B9
:1010540036FF41465846C7F800B003F040FFDFF8BA
:1010640004B23868DFF800824946DFF8009203F0E2
:1010740036FFCDF80490CDF808B03B680093326891
:1010840029687B4B404600F0B5F97A4B3268C3F8C7
:101094000080794B04934FF07E53CDF80490CDF843
:1010A4000CB002933B68DFF8D48100932968704B3D
:1010B400734F404600F0B0F9724BC3F800806D4B9B
:1010C4001B683B604FF000084FF000090523CDE991
:1010D4000243CDE90689CDE900446B4B6B49049486
:1010E4004FF480626A4802F0FFFC072369496A48AA
:1010F40004944FF40072CDE90243CDE90689674BAD
:10110400CDE900A402F0F0FC654804F0EBF8654872
:1011140004F0E8F8644804F0E5F8644804F0E2F800
:101124004948FFF797FE2B6809905148D3F81C8073
:1011340003F0C3FE0A90386803F067FF4D4B814605
:10114400186803F09BFFFFF70FFB32680B904FF01A
:10115400804392685B6A9B1A5B004FF0030BB3FBFE
:10116400FBFBB8F1000F47D0D84541D9A8EB0B0AD7
:10117400642404FB0AF4B4FBF8F44D4804F0B2F818
:101184004C4804F0AFF84C4804F0ACF84B4804F079
:10119400A9F84B4B4B494C48B9F1000F18BF1946FD
:1011A40004F0A0F80B99494804F09CF809994848C0
:1011B40004F098F84146474804F094F859464648E4
:1011C40004F090F822465146444804F08BF80A99FA
:1011D400434804F087F8434804F084F842494348FC
:1011E40004F080F8002142F2107002F081FF97E7CA
:1011F40007D2ABEB080ABBE7022B06D9DA46642414
:10120400BBE74FF0000A5446B7E7C2464446B4E78A
:10121400DA730008FC6C0008F46C00081804002061
:1012240064030020FC030020D4030020A06800080D
:101234000C6D0008046D000824040020706C000884
:10124400786800086803002010040020B46C0008CB
:101254000804002018690008CC6C0008E46C00083D
:10126400600300200000F042A803002020A1070032
:10127400440400205C030020008793036C030020D7
:101284005403002058030020B50E00084009002034
:101294002001002000070020A0000020ED0A000823
:1012A400FF73000807740008477400088874000876
:1012B40003740008C97400080C7500085075000810
:1012C400CA730008D273000894750008AE7500084C
:1012D400CE750008EC750008067600082076000834
:1012E4004676000863760008C0060020A67600084B
:1012F40030B5C0E90223039B054D0361049B4361A0
:101304000023C0E90051C0E906330384406230BDC4
:101314001C6D000870B504460D4803F0E3FF012579
:10132400606825840023E36103689B6898476068CC
:10133400036829465B699847206903F0E1FDE0688A
:1013440003F0B7FDA0680368BDE87040DB68184788
:10135400F876000810B50446054803F0C3FF60683A
:10136400002384F820300368BDE81040DB68184788
:101374001777000810B50446054803F0B3FF60680A
:10138400002384F820300368BDE81040DB68184768
:101394003677000810B50446054803F0A3FF6068DB
:1013A400012384F820300368BDE810409B68184787
:1013B4005477000838B50C4605464FF07E51204658
:1013C400FFF7AAF960B909492046FFF7C3F950B9F4
:1013D40021460748FFF7B6F8FFF7ECF9A86138BDD6
:1013E4004FF07E54F4E7014CF2E700BF0000FA43EB
:1013F40000BA5B4A37B5079D0195069D00950446E2
:10140400FFF776FF034B2360089BA362204603B0DB
:1014140030BD00BF386D000873B5079E0196069E67
:1014240000960446089DFFF763FF064B2360099B63
:10143400E3620A9B236320460023A5626363A563DA
:1014440002B070BD546D0008014B1B68184700BF03
:1014540000000020014B1860704700BF000000200E
:1014640030B585B004460D4610220021684605F0CB
:1014740030F802238DF802302A46044B01932146AA
:10148400684603F061F805B030BD00BF4D14000894
:1014940080B505460E461746984602F047FE0346B9
:1014A40005F028F9DFF81890044649F80030424660
:1014B40030463946A84754F8090000F0DDF900BF6A
:1014C40008000000034A536823F00203536000201D
:1014D400704700BF002004E0084B1A6842F4807291
:1014E4001A601A6842F400721A601A6842F4806240
:1014F4001A60034B034A1A60704700BF003C024065
:10150400580000200024F400014B036000207047C1
:10151400686D000808B5034B1B689847BDE8084090
:1015240000F026B80400002030BFFFF7FDBF00BF65
:101534002DE9F0410B4EDFF8308006EB0807CC1B99
:10154400054632460949204604F0B5FFA019424633
:101554000021083C04F0BDFF2C6707F10800BDE83A
:10156400F08100BF0000000004000000546C00087B
:10157400074A936893F90E10002907DB52699342D6
:101584001FBF044A536843F080535360704700BF41
:101594009006002000ED00E070B5264B15469A6ACF
:1015A40012F0100F9A6A14BF1124102412F0080FBD
:1015B4009A6A18BF1224920706460AD5586B9A6A8B
:1015C400140634D519B19A6A22F080029A6213245F
:1015D40001E06FF01500174B9A6A12F0010F9A6A36
:1015E40018BF142412F0200F9A6A18BF1524D206CB
:1015F40002D49B6A9B070AD50E4B5B68190506D576
:10160400314600F011FA10B180F309880224094B25
:101614009A6A920642BF5A6A22F400525A629A6A3D
:1016240042F0FF029A6200232B70204670BD6FF0D7
:101634001500CCE700ED00E0134B9A6A12F0007F2E
:101644009A6A14BF1E201D2012F0807F9A6A18BF68
:101654001F2012F4002F9A6A18BF212012F4802F41
:101664009A6A18BF222012F4003F9A6A18BF2320F6
:1016740012F4803F9A6A6FEA02426FEA12429A6257
:1016840018BF2420704700BF00ED00E010B5194BCF
:101694000246986A9C6A10F4805F14BF17201620D3
:1016A40014F4006F9C6A18BF1820A40509D5986B20
:1016B400986A000404D51AB19A6A22F400429A6224
:1016C40019200C4B9A6A12F4806F9A6A18BF1A2078
:1016D400D2050CD49B6A13F4005F18BF1C20054A82
:1016E400936A43F47F43936200230B7010BD1B2065
:1016F400F5E700BF00ED00E0F0B5484B5B688BB048
:101704000446C3F30803002585F31188BFF36F8FE4
:1017140002F07F40B0F17F4F11D102F00C00082895
:101724000DD010074CBF0C4601250022033B8DF859
:101734000720032B05D8DFE803F0246367602C46F9
:10174400F3E700239DF80720CAB902AE04F120078D
:1017540020686168324603C20834BC421646F7D199
:10176400099A002D54D0C2F3080121B96FEA52221C
:101774006FEA4222099202A9184603F0C1FD0BB098
:10178400F0BD264BDA6A9107DBD4DA6A002AD8DB8B
:10179400DA6A5200D5D55A69A16942F480725A6155
:1017A400BFF34F8FBFF36F8F5A6931F8021C22F4D5
:1017B40080725A61BFF34F8FBFF36F8F4DF6027281
:1017C40091420AD09A6AD2B24AB10DF107020121BC
:1017D4002046FFF7E1FE0346B4E72368B2E79A6ABE
:1017E40012F47F4F05D00DF107010120FFF74EFFE2
:1017F400F1E79B6AB3F5803FA3D3FFF71DFFEAE748
:101804000DF107020021E3E70DF107010020EDE7E8
:1018140022F4FF7222F00102ACE700BF00ED00E009
:10182400044B5A6942F010025A615A6922F00802C4
:101834005A61704700ED00E0EFF30880EFF309818F
:1018440001B57246FFF758FF01BD00BF102080F3B9
:10185400118808484FF40461401880F30988EFF3B5
:1018640014800221084380F31488BFF36F8F00F0C3
:101874009BF80000800D0020084B9B6883420BD12D
:10188400EFF3058343B1064B5A6842F080525A6025
:101894005A6A22F400425A6204F0CEBD9006002037
:1018A40000ED00E0094A93686FF00A01996708495E
:1018B40058674B6843F080534B60002383F31188CF
:1018C400BFF36F8F9368986F704700BF9006002036
:1018D40000ED00E015498A684FF030001044EFF342
:1018E400098C80E8F01F102080F31288BFF36F8FFB
:1018F4000F4F4FF000664A698A603E604FF07004F3
:10190400141920680B4C2060506F0023536780F338
:10191400118804B5104600F0EFF8BDE8044002F168
:10192400300090E8F01F8CF309887047900600207F
:1019340004ED00E04C0400201EF0040F0CBFEFF394
:101944000880EFF30980816911F8021C0229FFD095
:1019540001B5724603F0DAFC01BD00BF40B20028B5
:1019640007DB044A4109012300F01F00834042F8C9
:101974002130704700E100E040B20028A8BF00F128
:10198400604001F10101B8BF064B4FEA0111ACBF41
:1019940000F5614000F00F00C9B2B4BF195480F8DB
:1019A4000013704714ED00E00F4A08B50F4B22F006
:1019B4007F029A60BFF34F8FBFF36F8FD3F88820F5
:1019C40022F47002C3F88820EFF3148323F0040395
:1019D40083F31488BFF36F8F01F01AFE02F032FC18
:1019E40000F060F801F058FE0000000800ED00E08F
:1019F40042F8203C009B42F81C3C0A49019B42F8F7
:101A0400183C029B42F8143C21F001014FF0807312
:101A140042F8043C42F8081C0023203A026543675C
:101A2400704700BF95140008094A0346906870B1D6
:101A340013F1160F006E05D0A0F140029A4205D8AA
:101A4400834203D2814228BF0020704700207047A0
:101A54009006002008B515460B4A0C4B9060026FA7
:101A64001A600E4600F048F82C4686F309884FF0B9
:101A74000000074B984720464FF000014FF000024A
:101A84004FF00003034C2047900600204C04002034
:101A94002153000895140008014B10221A61704765
:101AA40000ED00E0044800231021C2180133612B2B
:101AB40082F80013F9D1704700E100E008B5EFF3B4
:101AC4000583064A103B02EBC30152F83300496810
:101AD4008847BDE80840FFF74BBD00BF40690008D8
:101AE400024B034A0348012100F076B800000220AB
:101AF40000000020686D0008026E054B403A1A6031
:101B0400044A4021C3E901121846012100F06EB8CD
:101B14005004002000000B15084AC2F898000B6816
:101B240023F01F03034343F01003C2F89C308B6877
:101B340043F00103C2F8A030704700BF00ED00E09D
:101B44002DE9F043DFF8608085B00E461F46044659
:101B54004FF00009B14523DA6068D8B13FB1411EA6
:101B640008421BD11F2819D92368194216D12368AA
:101B7400019303F0E7FBA36803430393D8F8905061
:101B8400C5F30725D0B2013DA84207D801A9FFF744
:101B9400C3FF421C09F101090C34DBE76FF01502A5
:101BA400104605B0BDE8F08300ED00E0044B0522CB
:101BB400C3F89420BFF34F8FBFF36F8F704700BFFC
:101BC40000ED00E0BFF35F8F024B0022C3F89420C6
:101BD400704700BF00ED00E010B5034C01232278EC
:101BE400FFF7AEFF207010BDE006002008B50B4AD9
:101BF40000231278FFF7A4FF10F1160F07D0084A4C
:101C04000021D2F89030C3F30723984200DB08BDCB
:101C1400C2F89800C2F8A0100130F2E7E0060020F4
:101C240000ED00E02DE9F043534B544CD3F89030D1
:101C34002568C3F307239D4285B000F29A80FFF71D
:101C4400C1FF00200C2685421AD14D4C4D4F257002
:101C54006846FFF759FCDFF82081DFF82C9106462F
:101C64000025AE4213D1237843490020D1F89020B7
:101C7400C2F30722934276DBFFF798FF002042E08D
:101C8400616806FB0011FFF747FF0130DBE70098AE
:101C940000EB05114FEA051CCB683B40B3F5000F80
:101CA40048D00AD8B3F5001F30D0B3F5800F36D032
:101CB400B3F5801F10D00135D3E7B3F1807F42D054
:101CC400B3F1007FF7D150F80C3088684A6803F00C
:101CD40039FB40F4802009E050F80C3088684A68E9
:101CE40003F030FB40F0885040F43020CDE901236C
:101CF4000390D8F890302078C3F30723013B98422F
:101D04002AD96FF0150005B0BDE8F08350F80C3007
:101D140088684A6803F016FB40EA0900E6E750F8D1
:101D24000C3088684A6803F00DFB40F0E06040F432
:101D34000030DBE750F80C3088684A6803F002FB97
:101D440040F08270D2E750F80C3088684A6803F09B
:101D5400F9FA40F08870C9E701A9FFF7DDFE23789E
:101D640001332370A7E7C1F89830C1F8A00001330C
:101D74007CE74FF0FF30C6E700ED00E0746D00082B
:101D8400E00600200000F0FF0000081108B5024B37
:101D94001B689847002008BD5C040020034B044ADC
:101DA4001860937843F00203937070475C0400203A
:101DB4000800002008B50649064821F00701C1F1D2
:101DC400005202F5003203F04EFA002008BD00BFB5
:101DD400871B00206004002003484FF0FF324FF0BF
:101DE400FF3301F0E3BC00BF18000020014801F0FC
:101DF40055BD00BF1800002010B50446FFF7ECFFE6
:101E04002146034803F020FABDE81040FFF7EEBF77
:101E1400600400202DE9F041104E114F05460024C6
:101E24004FF001082B7871691A19D2B208FA02F23C
:101E340001EA02008A4309D153FA84F3706157F826
:101E440033201AB107EBC303596890476A78013409
:101E5400E3B29A42E6D2BDE8F08100BF003C014003
:101E64006C040020044B184400230133994200F809
:101E7400012BFADC704700BF6400002007B506227E
:101E840001210020FFF7EEFF002211460620FFF794
:101E940073FD012108460722FFF7E4FF00221146E3
:101EA4000720FFF769FD082201210220FFF7DAFF6E
:101EB400002211460820FFF75FFD092201210320BB
:101EC400FFF7D0FF002211460920FFF755FD0A2233
:101ED40001210420FFF7C6FF002211460A20FFF764
:101EE4004BFD052108461722FFF7BCFF00221146CF
:101EF4001720FFF741FD282206210A20FFF7B2FF31
:101F0400002211462820FFF737FD074A92E8030014
:101F14006B4683E8030005488268194612689047B7
:101F240003B05DF804FB00BF546C0008C4670008EC
:101F3400034660B1B0FA80F2C2F11F02D2B2054981
:101F44008856054A11680B431360FFF707BDFF224B
:101F5400F5E700BF64000020003C0140024A13681A
:101F640023EA000313607047003C0140032921D891
:101F7400DFE801F0020C10190F4B9A6822EA000204
:101F84009A60DA6822EA0002DA6070470A4B9A68BB
:101F94000243F5E7084BDA680243DA609A6822EAFA
:101FA40000029A607047044B9A6802439A60DA68A8
:101FB4001043D860704700BF003C014030B5B0B159
:101FC400B0FA80F3C3F11F03DBB20B4850F833407F
:101FD4008C4204D100EBC3056D68954205D044B929
:101FE40040F8331000EBC3004260002030BDFF23F3
:101FF400EBE76FF00F00F9E76C04002060B1B0FA72
:1020040080F3C3F11F03DBB2044A002142F833100A
:1020140002EBC30251607047FF23F5E76C04002014
:1020240000F00302043292000F23934043EA90002D
:10203400C3B20233054A52F82320030C02EA1040CB
:1020440093FAA3F3B3FA83F3D840704700380140FE
:1020540010B51D4B18680B68442B14461DD82F2B44
:1020640005D85A1E042A0DD96FF0850014E0A3F197
:10207400300101228A4015490A420BD1402BF3D189
:10208400400807E0023B032B04D8DFE803F0021901
:10209400091100202060002010BDA82BFAD0E3E72E
:1020A40000F0A4F84FF4C073C00858438008F1E767
:1020B40000F09CF84FF4C073C0085843C008E9E727
:1020C4004FF4FA40E6E700BF580000201101100069
:1020D40070B5424D424C00F0A7F8284603F0DEF9F3
:1020E40000F052FFA3683F4AC3F30313D35C20FA02
:1020F40003F613781D41AE4202D2284601F01AF9C4
:10210400236843F480232360236843F480332360EB
:10211400334B1A689203FCD55A6F42F001025A6796
:102124005A6F9407FCD59A6802F00C02082A17D15A
:102134001A68900707D41A6842F001021A60284A04
:1021440013689907FCD5264B9A6822F003029A601B
:102154009A6812F00C0FFBD19A6822F0F0029A6090
:102164001F4C236823F080732360636823F4403397
:1021740043F480336360636823F0706343F0006367
:10218400636000F037F8236843F0807323602368AA
:102194009B01FCD5A36823F0F003A360A36823F09C
:1021A400030343F00203A3600D4CA36803F00C0384
:1021B400082BFAD1AE4202D3284601F0BBF80A4BF1
:1021C400064A1A60A36823F4E05343F48053A360DF
:1021D400A36823F46043A360002070BD00D8B80551
:1021E40000380240B17800085800002000487047C9
:1021F40000127A00094B0A495A681140094A0A43F5
:102204005A605A6822F4403242F480325A605A6862
:1022140022F0E04242F480325A60704700380240B3
:102224000080BFFF08604000064B1A6C42F08052E9
:102234001A641B6C82B003F080530193019B02B0BB
:10224400704700BF0038024008B5074804F013F88F
:1022540038B10648FFF7A2FD0448FFF7FBF8002059
:1022640008BD6FF01200FBE7A068000875220008A3
:102274000A2838B5074D044604D1AB680D215B68C4
:1022840028469847AB6803485B68E1B29847204604
:1022940038BD00BFA06800082DE9F843D0F80480D9
:1022A400D0F81090D8F8080017460D461E4603F0E3
:1022B4005EF8B7F5001F044616D12846D8F8084042
:1022C400FFF7AEFE84420CD1294603F050F80446D1
:1022D400FFF744FE2046FFF791FE00212046FFF75A
:1022E40045FE0020BDE8F883B7F5800F20D0B6F195
:1022F400806F19D0B6F1C06F18D0B6F1007F1AD133
:10230400022610494A462046FFF758FEB0B9D8F8CD
:102314000810284603F02EF820463146FFF726FE23
:102324002046FFF705FEDCE70126EAE70326E8E797
:102334006FF08500D6E76FF01500D3E76FF00F005C
:10234400D0E700BF6157000838B5036904465860F8
:10235400084D284603F08FFF40B16168AB680C312B
:102364001B682846984700EAE07038BD6FF01200F9
:10237400FBE700BFC467000810B502694368126A2E
:10238400DB68C2F34202012A04D0022A21D06FF092
:10239400150010BD58681F4AB1FBF2F220F03F004F
:1023A40010435860186A013220F03F0002431A6259
:1023B400194AB1FBF2F140F6FC72114208BF042144
:1023C400DA6922F44F4222F0FF020A43DA61002064
:1023D400DFE758680F4AB1FBF2F220F03F001043E8
:1023E4005860186A4FF49674624320F03F004FF42B
:1023F4007A74B2FBF4F2013202431A62074A914240
:1024040089BF013248F20101B1FBF2F141F400410C
:10241400D6E700BF40420F00400D03007F4F12007B
:10242400F7B50446436806691748DD680F465968DE
:102434008368DB680022019223B96FF0040420460C
:1024440003B0F0BD01AA98470028F6DB376206F115
:1024540010074FF0FF324FF0FF33384601F0A2FA75
:102464002B6823F001032B6020460199FFF784FFBA
:1024740096F84D3004461BB12B6843F001032B60E2
:10248400384601F05BFADAE7C46700082DE9F74340
:102494000446D0F8048005694FF0FF320021284635
:1024A40003F035FF0026D8F800302046984785F819
:1024B4004C6085F84E600122114605F1100003F0CE
:1024C40026FF274F384603F0D6FE002845D0D4F81F
:1024D400049001AAD9F81400314603F059FCB04223
:1024E4000DDB019B32461979186800F043F8B042BD
:1024F40005DBBB68D9F804101B6838469847D8F840
:102504001010184B994222D015D8174B994220D05D
:10251400164BCB1A59425941890041F0100120460B
:10252400FFF77EFF002803DB012385F84C300020F1
:1025340003B0BDE8F0830E4B99420CD003F5C313EE
:1025440003F5206399420CBF0A210021E5E7062127
:10255400E3E70221E1E70821DFE76FF01200E7E794
:10256400C467000840420F00A0860100801A0600DC
:1025740040E133002DE9F0471E4F044600EBC1064D
:102584000025B44201D1002014E02068C30600F005
:102594001F0911D4656845F02005C0F3481AC0F33B
:1025A40044200F2823D857F82080B8F1000F0DD10C
:1025B4006FF01200BDE8F087B9F1100F04D0B9F143
:1025C400110FEAD16568E8E73025E6E7404603F0F5
:1025D40052FE0028ECD04B462A460AF00F01404632
:1025E40003F0D2F8002804F10804CADAE2E76FF035
:1025F4001500DFE74C6F000840291AD011D80429D0
:1026040019D0102919D0012908BF002318BF0623A7
:102614000C49026AC85C02238340134023FA00F089
:102624007047B1F5807F0AD0B1F5806F08BF0523EC
:10263400ECE70323ECE70123EAE70223E8E70423BA
:10264400E6E700BF567800082DE9F04701F1FF3CAA
:1026540088B0BCF1030FBDF8407044681546984635
:1026640000F2E4802368B3F1804F06D0724A9342AB
:1026740003D0B5F5803F00F2DC80704A042952F89B
:102684002C6007F4807A0CD1BAF1000F40F0CE80B0
:102694003046D1469DB91A6A22EA00021A62002025
:1026A40074E0674A52F82C90BAF1000F05D0B9F1E2
:1026B400000F00F0BB804846ECE73046EAE7A2682A
:1026C40052BB013D1A6A07F0010730EA02024FEAE1
:1026D400470739D1402800F0A1802DD8042800F004
:1026E4009F80102800F09E80012808BF002218BF98
:1026F40006225448196A805C0222824021EA0202BE
:10270400874017431F62504B206853F82C304146D2
:1027140098472368DD62C2E7102A02D108F1FF3826
:10272400CFE722F04001202902D0402A40F08180E6
:102734004FEA58086D08C5E7B0F5807F74D0B0F54E
:10274400806F08BF0522D2E7684603F040FD60238E
:1027540000930123BAF1000F1BD00293059723685D
:102764001B6A36EA03030CBF01230023019320688C
:102774003146FFF741FF0490CDF80C8020686A468B
:10278400314600F0FFFCB8B16FF0040008B0BDE8BA
:10279400F08701930497B9F1000FEDD023681B6A09
:1027A40039EA03030CBF012300230293206849463E
:1027B400FFF722FF0590DFE72268136843F08003E8
:1027C4001360402E226821D018D8042E20D0102E59
:1027D40020D0012E18BF06201C4B195C1C4B18324C
:1027E400185C565808238340334353502368DD62F2
:1027F4002268536943F00103536150E7B6F5807FC3
:102804000AD0B6F5806F08BF0520E3E70320E3E7AD
:102814000120E1E70220DFE70420DDE7032268E787
:10282400012266E7022264E7042262E76FF01500E2
:10283400ACE76FF08500A9E7000C0040E06F0008EA
:10284400D46F000856780008C46F00086478000844
:102854005D7800082DE9F04186B005694468324E80
:10286400304603F008FD002858D0D6F8088004F15B
:102874000C07D8F80030394630469847002804DB66
:10288400D8F80C3023B96FF0570006B0BDE8F081DA
:102894006A463946304698470028F6DB234B01A8A0
:1028A400D3F88C3003F079FC029B2B60D5E901014D
:1028B4008368DB6803B19847606901AA002103F0CB
:1028C40067FA0028E1DB019B002219791868FFF7F9
:1028D40051FE0028D9DB01A803F070FC6368ADF851
:1028E4000430A36802930023CDE9033301A92068CF
:1028F40000F0F2FBA8B923680D4A934203D002F515
:102904008062934203D15A6C42F400425A642268B2
:10291400136843F0010313600020B6E76FF0120060
:10292400B3E76FF00400B0E7C46700080038024062
:102934000000014030B50E29036911D11968114C0A
:102944000B130A25C1F30B0193FBF5F005FB1033C0
:102954006143634303EB1133C2E90003002030BD3C
:102964000D290CD1B3F90430642493FBF4F104FB76
:10297400113308B242F2107113FB01F3ECE76FF06C
:102984008500ECE7A086010030B544688BB0206870
:1029940001AA002103F0FCF9002843DB019B00227B
:1029A40019791868FFF7E6FD00283BDB274D284618
:1029B40003F061FC002840D0AB68211D1B68284649
:1029C400984700282EDBA369002B39D001A803F017
:1029D40008FC23690193237D13B102230293069318
:1029E400637D1B0505930993E168A269B1F1804FEA
:1029F40002D0174B994217D14FF0FF33B3FBF2F3D8
:102A04005343DB43C3F1FF2303F57F03FE33CB6260
:102A1400E06801A903F0F3FBA8B9E268136843F086
:102A2400010313600BB030BD4FF6FF73B3FBF2F03C
:102A340002FB1033C3F57F43E8E76FF01200F1E7C0
:102A44006FF01500EEE76FF00400EBE7C4670008D1
:102A5400000C0040F8B503690C465E6823794168B0
:102A6400012B34D09A1E55425541AD026279022A97
:102A74009CBF354F37F812C0A27988BF4FF4005C71
:102A8400042A27D0003B18BF01231B03E279012A43
:102A94000A680CBF4FF440770027A642D1681CD1C6
:102AA40021F4B05129430B43D360136923F44053F9
:102AB40043EA0C03136143681A68536923F44073AF
:102AC4003B4353613168BDE8F84003F0CABA4FF4A0
:102AD400C065CBE74FF48053D8E701F4C0618D4261
:102AE4001FBFD16821F4C0612943D16042681168D5
:102AF4000A6902F4405294451FBF0A6922F4405205
:102B040042EA0C020A6142681168CA6802F48052FF
:102B140093421FBFCA6822F480521343CB604368B8
:102B24001A68536903F440739F421FBF536923F427
:102B340040733B43536121683368994203D003F0E7
:102B440090FA23683360F8BD447100082DE9F04120
:102B540043681C680369D3F804800B790D46012B84
:102B64004979AE7940D1022959D9042E54D04FF471
:102B740080574FF4C06203238B424DD1002F00F0E5
:102B84008680002A14BF03220422B24244D1EB7986
:102B9400C3B1012B40D1404B9C4213D0A3F54C430D
:102BA4009C420FD003F580639C420BD003F58063F5
:102BB4009C4207D003F580639C4203D003F5444351
:102BC4009C4229D1E36823F40053E3602946FFF7CC
:102BD40041FFE36843F40053E36095E8030088E8A9
:102BE40003000020BDE8F081022B08D1022921D97D
:102BF400042E11D04FF480624FF48057BBE70229B2
:102C04000A461FD9042E04D133B94FF480571A460B
:102C1400B1E763BB0329B8D06FF08500E2E71F4A30
:102C2400042E32F811C0F7D04FF4C062033B012BDD
:102C340010D8F1E7194A042E32F811C0ECD04FF441
:102C44008062F3E7154A042E32F811C016D1002B26
:102C5400E2D11A464FF48057BCF5805F13D0BCF51F
:102C6400405F12D0BCF1000F85D1012384E7033B00
:102C7400012BD1D90022BFE70022D7E7002BFBD1DB
:102C84001A461F46E8E7002376E7022374E7002A82
:102C940014BF0222032278E70010014044710008A7
:102CA400F7B50669446805462648306003F0E3FA40
:102CB40018B96FF0120003B0F0BD3068E1688368A2
:102CC4001B6898470028F6DB206A01AA002103F05C
:102CD4005FF80028EFDB019B002219791868FFF7E1
:102CE40049FC0028E7DB6E682B6934685F68E36899
:102CF40023F40053E360706803F0BDFA0028D8D0D1
:102D0400D6E901018368DB6803B1984704F10C0339
:102D140053E8003F43F00C0304F10C0141E8003296
:102D2400002AF3D139462846FFF794FE337D1BB1C0
:102D3400636943F008036361E36843F40053E360A9
:102D44000020B8E7C467000810B54FF0E0230F492E
:102D54009C691A6908689B690D4902F4803234B988
:102D640093B903464AB90A681044C01A10BD002B2F
:102D740008BF03460AB9A342F5D90A6802440A60A7
:102D84004FF0E0221269EEE70446F3E78C060020D8
:102D9400880600200A4B102283F82320094B4FF4A5
:102DA40016521A60084B002018604FF0E02342F2DC
:102DB4007F525A6198611A6942F007021A6170479A
:102DC40000ED00E08C06002088060020684620F014
:102DD40007018D4619B5FFF7B7FF114B1149D3E928
:102DE40000420868001942F10002C3E900020E4AD9
:102DF40000230B60D2E900414FF41653001BB0FBD3
:102E0400F3F043431B1941F10001C2E9003101F021
:102E1400F5FAFEF7ADFBBDE819408546704700BFE3
:102E2400A801002088060020A00100202DE9F0411F
:102E3400DFF8DC8099B1421C0BD14FF0E02213691A
:102E440023F0010313614FF07F43C8F80030BDE85D
:102E5400F081D8F80060012807DC00270BE0431C50
:102E6400D8F80060F7D140F2D26040F2D3639842C0
:102E7400A8BF1846471EEFF31185102383F3128869
:102E8400BFF36F8FFFF760FF224C4FF0E023996987
:102E9400D4E90023801843F10003C4E900031E4B66
:102EA40000221A601D4B1A68831A2ED44FF4165C44
:102EB4000CFB073303F515533F33B3FBFCF7131A2D
:102EC4000CFB0733B3F5806F154A38BF4FF48063AA
:102ED400934228BF13464FF0E022C8F80030013B6C
:102EE40090695361002393618142A1EB0003D4E90B
:102EF400001238BF9B195B1842F10002C4E900328A
:102F040085F31188BFF36F8FA1E74FF48063E2E785
:102F14008C060020A801002088060020A0010020C3
:102F240000C3FF0038B5EFF31185102383F3128833
:102F3400BFF36F8F084B1C68084B1B68E41AFFF73C
:102F440003FF85F31188BFF36F8F4FF416532044AA
:102F5400B0FBF3F038BD00BFA8010020A0010020A1
:102F640038B5EFF31185102383F31288BFF36F8F05
:102F7400044B1C68FFF7E8FE85F31188BFF36F8FDD
:102F8400204438BDA801002008B520498B6803F00F
:102F94000C03082B07D00C2B20D01D481D4A042BF2
:102FA40018BF104608BD4A684B68496813F480038B
:102FB40014BF17481748C1F3881118BF002302F043
:102FC4003F02A1FB0001FDF715FC104B5B68C3F346
:102FD400014301335B00B0FBF3F0E3E74A684B685D
:102FE400496813F4800314BF09480A48C1F38811DF
:102FF40018BF002302F03F02A1FB0001FDF7FAFB1A
:10300400024B5B68C3F30273E5E700BF003802407C
:1030140000127A000024F400034B044A9B68C3F3B3
:103024000313D35CD840704700380240B1780008DD
:10303400034B044A9B68C3F38223D35CD840704794
:1030440000380240A9780008034B044A9B68C3F384
:103054004233D35CD840704700380240A978000856
:103064000E4A0F49536813F4800F0E4B08BF0B46EA
:10307400082850685168526800F03F00B3FBF0F034
:10308400C1F3881303FB00F003BFC2F30143013310
:103094005B00C2F30273B0FBF3F0704700380240E8
:1030A4000024F40000127A00084B986800F00C0029
:1030B400082808D00C2806D0054A064B042818BF57
:1030C400134618467047FFF7CBBF00BF00380240D5
:1030D4000024F40000127A00284A0368904229D0A0
:1030E400B0F1804F26D0A2F57C42904222D002F566
:1030F400806290421ED002F5806290421AD002F59E
:103104007842904216D002F57052904217D1CA68A4
:1031140023F44073134303608B68C3620B88836298
:10312400164B984203D003F5806398421FD10B6974
:1031340003631CE04A6823F070031343E7E7104A73
:103144009042E4D002F580629042E0D0A2F5983239
:103154009042DCD002F580629042D8D002F58062C1
:103164009042D4D003608B68C3620B888362436946
:1031740043F0010343610020704700BF0000014099
:1031840000440140B1F5807F30B500F09B8005D844
:1031940001292DD010295FD0012030BDB1F5805F09
:1031A400FAD1036A23F480530362036A4468C16951
:1031B400156821F4E64141EA0521156923F4005319
:1031C40043EA0533556823F4805343EA0533584DE5
:1031D400A84203D005F58065A84204D1956924F47A
:1031E400804444EA85144460C161D268026430E0DA
:1031F400036A23F001030362036A41688469156862
:1032040024F073042C43156923F002032B435568FF
:1032140023F001032B43464DA84203D005F58065F6
:10322400A84212D1556923F0080343EA850395683F
:1032340023F0040343EA8503956921F4807129434B
:10324400D56921F4007141EA450141608461D26885
:10325400426303620020A0E7036A23F010030362C1
:10326400036A41688469156824F4E64444EA052441
:10327400156923F0200343EA0513556823F010036E
:1032840043EA05132A4DA84203D005F58065A842F8
:1032940013D1556923F0800343EA8513956823F01D
:1032A400400343EA8513956921F4806141EA85016D
:1032B400D56921F4006141EAC50141608461D268A5
:1032C4008263C6E7036A23F480730362036A416876
:1032D400C469156824F073042C43156923F400733E
:1032E40043EA0523556823F4807343EA0523104D0C
:1032F400A84203D005F58065A84213D1556923F48B
:10330400006343EA8523956823F4806343EA8523B5
:10331400956921F4805141EA0511D56921F40051E0
:1033240041EA45114160C461D268C26391E700BFBC
:1033340000000140002800F0CC80674B1A6802F4BA
:103344004042B2F5404F51D102F10F6202F58C5266
:10335400904211D91A6802F44042B2F5004F51D19B
:1033640005235D4A126802F44042B2F5804F74D1DD
:10337400012B38BF012370E0584A904208D91A68DB
:1033840002F44042B2F5004F40F095800423E8E790
:103394005349884219D8534A90421ED8524A9042FF
:1033A40052D91B6803F44043B3F5004F4FF00103B7
:1033B4003AD0494A126802F44042B2F5804F4CD1E7
:1033C4008842D5D8474A90423CE01A6802F4404209
:1033D400B2F5004F53D00323EBE71A681B6803F4DC
:1033E4004043B3F5804F4FF00203C0E71A6802F47C
:1033F4004042B2F5004F4DD102F10F6202F5A342F3
:10340400904207D91B6803F44043B3F5804F4FF053
:103414000503ACE7314A90424DD8314A90422ED848
:10342400304A9042DAD800232F4A904213D92A4BCB
:103434001B6803F44043B3F5804F46D1294B9842AF
:103444004FF0010333D993E71A6802F44042B2F50E
:10345400004F1CD10023204A126824490A6822F034
:103464000F021A430A600A6802F00F0293421CBF5B
:103474000A6802F00F02981A18BF012070471B68EF
:1034840003F44043B3F5804F4FF003036FE71B6829
:103494000023E2E71B6803F44043B3F5804FF7D100
:1034A4000F4B98420FD80F4B984210D800230E4A66
:1034B4009042D2D95CE71B6803F44043B3F5804FD4
:1034C4004FF0040353E7032352E70123C5E7022324
:1034D400C3E70120704700BF00700040000E2707BB
:1034E400804A5D050087930380C3C901003C024004
:1034F40038B5EFF31185102383F31288BFF36F8F70
:10350400064B9C6802F0CAFE85F31188BFF36F8FE7
:103514002046BDE83840FEF7AFB900BF9006002052
:1035240038B5094B53F82040013053F82050A542D8
:1035340000D838BD636823B1204602F0B2FE0834D7
:10354400F5E723689847FAE72C71000870B52B4B10
:103554002B4C2C4D012286B003201A70FFF7E0FF9C
:1035640000F0CCFF02F0B9FE0420FFF7D9FF264695
:10357400AE4204F1300410D300F0E0FC204C224EA3
:10358400AC4226D300F0EEFCFDF712FD1F4A137B7C
:1035940023F00103137306B070BD54F80C3C05937B
:1035A40054F8103C049354F8143C039354F8183C16
:1035B400029354F81C3C019354F8203C009354E9C2
:1035C4000A2354E90C0100F043FA54F8303C5E65D8
:1035D400CDE7D4E90A23B3F1FF3F08BFB2F1FF3FBF
:1035E40005D052EA0301206803D102F09CFE303476
:1035F400C6E73146183000F087FEF8E7E106002000
:10360400486C0008486C000835640008300200204B
:1036140008B50348034A0021121A02F05AFE08BDF5
:10362400A0000020E806002070B5002386B0012227
:10363400CDE90423134E144D01930F22CDE9023238
:103644001249142303FB005506EBC01604464FF43D
:10365400C07000FB04110E4B00954FF4A07230466D
:1036640000F0F6F9737B0B4AEE6023F004037373E6
:103674004FF4046304FB033313442C746B6006B0EF
:1036840070BD00BFB001002090060020C0150020CE
:10369400ED620008800D0020BFB50020FFF740FF59
:1036A4002C4B83F308882C4D2C4E6B692C4F43F420
:1036B40000736B610024F02385F82230EC772C76BC
:1036C4006C76AC7685F820406B6A43F4E0236B6239
:1036D400FEF7A6F8FEF7E0F94FF0FF33AB62EB62BA
:1036E400FEF7A0FAFEF7FCF91E4BB36040F201129C
:1036F4009A81C3E91844DC6602F0BCFDFDF7ECFED8
:103704000120FFF70DFF0220174DFFF709FF00F01E
:103714005DFC164B75610593012315490094CDE9B1
:1037240003434FF480623B46CDE90144284600F050
:103734008FF96A7B064622F0040228466A7302F077
:103744002EFE2046FFF770FF3A4631462846FEF724
:1037540081F900BFC015002000ED00E090060020B4
:1037640051350008B002002030020020C178000862
:103774004017002038B5054C256804EB850405B9CD
:1037840038BD54F80439013D9847F8E7486C0008FF
:1037940038B5044C044DAC4200D338BD54F8043B56
:1037A4009847F8E7546C0008546C00082DE9F3417D
:1037B400044617461E46EFF31188102383F312883C
:1037C400BFF36F8FC368334A7BB1806891688842C6
:1037D40019D057EA060318D188F31188BFF36F8F05
:1037E4006FF00F0002B0BDE8F081916891F90E10FE
:1037F40021610133E3609368A36088F31188BFF308
:103804006F8F0020EEE72169F2E791F90E1090F92D
:103814000E309942A8BF19466FF07E029142B8BF9C
:1038240011468B422DDD02F06AFD0546CDE9007696
:1038340019482246414600F0C3FA0028E1D0EFF3CC
:103844001186102383F31288BFF36F8FA068D0B161
:10385400236821699C420AD04BB193F90E309942F6
:10386400A8BF19466FF07E039942B8BF194602F00B
:1038740046FD40B10848314600F01CFB6FF00A00D9
:10388400B0E70025D2E7002DF4D186F31188BFF309
:103894006F8FF3E790060020E2060020F8B58368F6
:1038A4000546002B3FD0234A926893423ED1C36819
:1038B400012B03D9013BC3600020F8BDEFF311874E
:1038C400102383F31288BFF36F8F0169806802F0BD
:1038D40016FD2C68A54207D10023C5E9023387F3FE
:1038E4001188BFF36F8FE7E7002CF5D0D4E90032DD
:1038F40013605A60637B002623F002036373C4E9F8
:103904000066A66004F1180002F0B8FDAC6094F9FA
:103914000E302B612046A66702F041FD0648394669
:1039240000F0C8FAC8E76FF01500C6E74FF0FF30A3
:10393400C3E700BF90060020E206002070B5EFF355
:103944001186102383F31288BFF36F8F0468A0429B
:103954001AD0CCB1D4E9003213605A60637B0025DD
:1039640023F002036373C4E90055A56004F1180051
:1039740002F084FD2046A56702F011FD3146084897
:10398400BDE8704000F096BAD0E902329A4218BFFE
:103994000133836086F31188BFF36F8F70BD00BF5E
:1039A400E306002013B5EFF31181102484F3128889
:1039B400BFF36F8F846844B1013C846081F3118844
:1039C400BFF36F8F002002B010BD52EA030406D18A
:1039D40081F31188BFF36F8F6FF00F00F3E7CDE928
:1039E40000230246014800F0EBF9ECE7E30600206F
:1039F4002DE9F0410546EFF31188102383F3128873
:103A0400BFF36F8F00266FF00A072C68A54214D00D
:103A14009CB1D4E9003213605A60637BA66023F042
:103A24000203C4E90066637304F1180002F026FD82
:103A3400A767204602F0B3FCE7E70023AB604146EA
:103A44000248BDE8F04100F035BA00BFE3060020AB
:103A54002DE9F043073285B022F007020E461F46D7
:103A64001099017300F158037F32C0E916330446FC
:103A7400002322F03F020421836041733F2A0F9800
:103A8400A073C4E90633E37306F14009A2F14008C8
:103A940005D883F31188BFF36F8F084602DFB5188A
:103AA40029462046FDF744FD07300E9B20F0070011
:103AB400A066C4E9189802930D9B01932D1A0C9BE0
:103AC40000932A463B4631462046FDF791FF0023EA
:103AD4006365044B9B6803B1DB6EE366284605B05F
:103AE400BDE8F08390060020F0B587B00025059569
:103AF400109D04950F9D03950E9D0295DDE91276A8
:103B04000D9D01950C9D00950446FFF7A1FFB6F1AC
:103B1400FF3F08BFB7F1FF3F05D056EA070305D1C1
:103B2400204600F0D9F9204607B0F0BD03493A46D3
:103B3400334604F1180000F0E7FBF4E735640008AD
:103B440038B590F90D20437B002A014604DA03F0CE
:103B54007F03437302F0E9FB0D4D2A46AB6852F82C
:103B6400184F944200D004B9EC688B4207D05A7BBA
:103B7400D20604D1DA897F2A01D9A2692AB1A342E3
:103B840002D0204600F006FB23466B6138BD00BF1F
:103B94009006002070B590F90D30427B002B36DB87
:103BA400D10634D18369002B31D11C4C62F07F02E1
:103BB4004273224652F8181F914218BF0B46E1691E
:103BC40023B9C0E900210860E0610CE090F90E50CF
:103BD40093F90E60B5421BD0AE4219DD5968C0E9B5
:103BE400003108605860A569954200D005B9E568C0
:103BF400A3685A7BD20604D1DA897F2A01D9AA693B
:103C040052B1AB4202D0284600F0C4FA656170BDDF
:103C14009942D6D01B68D3E76361F8E79006002089
:103C24002DE9F843002A427B0CBF4FF010094FF0F6
:103C3400080919EA020F04460F4621D149EA020392
:103C4400D2092AD14373B9F1080F2CD04FF00008E0
:103C5400344E334653F8185F9D4200D005B9F568D9
:103C6400B368AB4202D0284600F094FAB9F1100FC1
:103C7400756144D1BFF35F8F637B23F0600363738B
:103C8400284B9B68A34247D1EFF30583002B43D114
:103C94003846BDE8F843FDF705BE03F07F034373E0
:103CA40002F043FBCFE7A36813B1204602F045FBC3
:103CB40004F1180002F0E2FBA56D04F15806AE42CF
:103CC40011D04FF0000875B1284602F036FB05F11B
:103CD400180002F0D3FBC5F878802846FFF75AFF96
:103CE400A56DAE42EFD10F4B9B689C42AED1EFF372
:103CF4000588B8F1000818BF4FF00108A8E7B8F12B
:103D0400000FB7D0084BB36040F201129A81002231
:103D1400C3E91822DA66ADE787F31188BFF36F8F22
:103D2400BDE8F88390060020B002002070B590F939
:103D34000D20437B002A014604DA03F07F0343731A
:103D440002F0F3FA4B7B1D4C63F07F0322464B7366
:103D540052F8183FE069934208BF002323B9C1E930
:103D640000200160E1610CE091F90E5093F90E60BE
:103D7400B5421ED0AE421CDD5868C1E90030016076
:103D84005960A569A368954200D005B9E5688B42DE
:103D940007D05A7BD20604D1DA897F2A01D9AA69CD
:103DA4002AB1AB4202D0284600F0F4F92B466361F5
:103DB40070BD9842D3D01B68D0E700BF90060020A6
:103DC400F8B5124B0C461146114A98681060DDE9AB
:103DD4000676EFF31182102282F31288BFF36F8FFD
:103DE4009D68284602F0B3FAB6F1FF3F08BFB7F169
:103DF400FF3F06D007493A46334605F1180000F064
:103E040083FA2046BDE8F840FDF74CBD900600203B
:103E1400B006002035640008F8B50446EFF31187B6
:103E2400102383F31288BFF36F8F437BDA0649B202
:103E340019D18569BDB903F07F03437302F075FAA4
:103E4400437B1B4E817363F07F034373334653F804
:103E5400182F9A4218BF1546F2695DB9C4E90032B9
:103E64001460F46111E0A173002087F31188BFF39B
:103E74006F8FF8BD95F90E00814214D0884212DD8F
:103E84006A68C4E9005214606C60B4699C4200D052
:103E940004B9F468B3689C4202D0204600F07AF971
:103EA40074610120E1E7AA42D8D02D68D5E700BFAC
:103EB4009006002049B9EFF3058030B9054B5A69E3
:103EC4009B689A4201D0FDF7EDBC81F31188BFF3E2
:103ED4006F8F70479006002010B5EFF31184102205
:103EE40082F31288BFF36F8F427B510704D484F3AB
:103EF4001188BFF36F8F10BD22F004024273FFF7E5
:103F040049FE21460248BDE81040FFF7D3BF00BF79
:103F1400E4060020034648B9EFF3058232B9064AA5
:103F240051699268914201D0FDF7BCBC83F31188BA
:103F3400BFF36F8F704700BF90060020EFF311812D
:103F4400102383F31288BFF36F8F054B9A68D37BDA
:103F5400013BD37381F31188BFF36F8F704700BFA8
:103F64009006002070B5EFF31186102383F31288B6
:103F7400BFF36F8F144DAB68DA7B0132DA732A46D4
:103F840052F8184F944200D004B9EC685A7BD20618
:103F940004D1DA897F2A01D9A2692AB1A34202D0C5
:103FA400204600F0F7F823466B6186F31188BFF3CF
:103FB4006F8FEFF31180102383F31288BFF36F8F99
:103FC400BDE87040FFF7A6BF90060020024B03F146
:103FD4001802C3E90622704790060020F8B5EFF3F3
:103FE4001186102383F31288BFF36F8F1D4CA068D2
:103FF400437B03F07F03437302F097F9A3685A7B72
:10400400214662F07F025A7351F8182FE0698A4200
:1040140008BF002222B9C3E900100360E3610CE089
:1040240093F90E5092F90E70BD4217D0AF4215DDD0
:104034005068C3E9002003605360A5698D4200D035
:1040440005B9E568A3689D4202D0284600F0A2F8AD
:1040540065613046BDE8F840FDF724BC8242DAD001
:104064001268D7E79006002050EA01032DE9F041D9
:1040740005460E4603D1FFF7B1FF00202BE0831C59
:1040840071F1FF3329DB02F00EFA2C18EFF31188DB
:10409400102383F31288BFF36F8F124F124BB8684B
:1040A4001860FFF74DFDB86810492A4633461830AA
:1040B40000F02AF9BA68537B43F010035373404667
:1040C400FDF7F0FB02F0EFF9201A63EB030301287C
:1040D40073F10003D1DBBDE8F0816FF00104241A11
:1040E400D4E700BF90060020B00600203564000825
:1040F400B1F1FF3F08BFB0F1FF3F08B506D10A4B4D
:10410400986802F05BF94FF0FF3008BDFFF7ACFF91
:10411400C11709304FF00A024FF0000341F10001CA
:10412400FCF768FBF1E700BF90060020014B98689C
:10413400704700BF90060020044BC01A044BC01007
:104144005843044B01221A54704700BF3003002027
:10415400ABAAAAAAE5060020C3897F2B12D80A4B72
:104164001B6863B1094B90F90E201B689A4209DB66
:10417400437BDB0606D1064BC31A18BF012303F0A9
:10418400010070470023FAE7B8060020B4060020B7
:10419400B001002070B50E4B0E4C1E7C06EB46039E
:1041A40004EBC3040546204602F068F90A4B0022DA
:1041B40028469A55FFF7D0FF48B1084B08491A68BA
:1041C400013A2046D317BDE8704000F09DB870BD99
:1041D4009006002030030020E5060020B8060020E9
:1041E4003D41000838B5EFF31185102383F312889D
:1041F400BFF36F8F104B114A9C681068A04206D120
:10420400FFF7C8FF85F31188BFF36F8F38BD002116
:104214001B7C11600A4AD35C002BF3D02046FFF7C5
:104224009BFF0028EED0637BDB0602D12046FFF71C
:104234007DFD2046E4E700BF90060020B006002084
:10424400E50600200748084A084908B5121A02F092
:1042540042F80748074A0849BDE80840121A02F024
:104264003AB800BF000000209A0000200C79000832
:1042740000000020000000200C790008034B1B689C
:104284000BB9FEF74FBE0020704700BFBC060020EC
:1042940030B570B10B4B5B6898420AD0036843B1E8
:1042A400D3E90421D0E90445121941EB0501C3E91E
:1042B4000421D0E9003213605A600023C0E90033BE
:1042C40030BD00BF5C00002010B50E4B1C689C4242
:1042D40004D1FFF7D3FF6FF0004010BDFFF7CEFF0E
:1042E400002CF8D0D4E904321B1A62EBE072B3F16B
:1042F400004F72F10001EEDA002AACBF184600202C
:10430400EBE700BF5C000020B3F1FF3F08BFB2F150
:10431400FF3FF8B504461D4616465ED08160EFF3B4
:104324001187102383F31288BFF36F8F013275F165
:10433400FF3324DA2E49D1E900206FF001039B1AE0
:104344004FF0FF3262EB00009E1B60EB0500012E74
:1043540070F1000301DA01260020C4E90460254E4F
:10436400D6F800C07568B44508BF4FF0000CBCF126
:10437400000F0DD1C4E900652C6074601CE0FFF7E8
:104384007DFF013645F10005361845EBE070E4E7A2
:10439400DCE90420D4E90431934271EB000E1DDA08
:1043A400D21ADCF8043060EB0100CCE90420C4E943
:1043B40000C31C60CCF804403368B34209D09C426B
:1043C40007D10D4B1C6824B9FFF77EFF2146FEF789
:1043D4002DFD87F31188BFF36F8FF8BD9B1A61EB36
:1043E4000001AC45C4E90431C4D0DCF800C0BEE728
:1043F400480300205C000020BC0600202DE9F84F93
:10440400EFF3118C102383F31288BFF36F8FDFF85F
:10441400B0A0DFF8B0902C4FC9F80000DAF8000023
:104424000024504508BF00200025D7E90021D9F811
:104434000030E04678B3D0E9046C4FEAE37EB3423F
:104444007EEB0C0B05DAF61A6CEB0E04C0E904647F
:1044540021E0B21841EBE671C0E90445C7E9002147
:10446400FFF716FF88F31188BFF36F8F83689847AF
:10447400EFF31188102383F31288BFF36F8FD9F8F9
:104484000030DAF800009B1B5045C446C9F80030E0
:10449400CBD1D7E900219A1841EBE3730024C7E993
:1044A4000023C9F80040FFF70FFF2146FEF7BEFCCA
:1044B40088F31188BFF36F8FBDE8F84FFFF792BE02
:1044C4005C000020BC0600204803002010B5EFF378
:1044D4001184102383F31288BFF36F8FFFF7CEFE8E
:1044E400054A0346D2E90001181841EBE37184F34D
:1044F4001188BFF36F8F10BD48030020014800F0FE
:10450400F1BE00BFC67800080EB470B589B00DAC1A
:10451400054654F8046B1C22002101A801F0D9FFC0
:1045240001238DF806302246064B0393314601A839
:104534000595009400F064FA09B0BDE8704003B03A
:10454400704700BFAB6600082DE9F04F8DB043689B
:104554000293837815469A07804640F10D81002422
:104564000E78002E00F00A81252E0BD04B1C0393ED
:104574000134029B4146304698470028C0F2F68039
:104584000399EDE74E788B1C252E0393F0D000277A
:10459400B946BB46BBF11F0F38D8A6F12003102B38
:1045A4000AD8DFE803F02A090930090909210909B1
:1045B4000928092D09091F00A6F13003092B33D955
:1045C4002A2E37D11BF0400F55F8043B40F082806F
:1045D400002BA7BF4BF0200B9946C3F100094BF009
:1045E400280B01E04BF0010B039B13F8016B0393C1
:1045F400002ECFD130E04BF0020B4BF0040BF3E76D
:104604004BF0080BF0E74BF0100BEDE7BBF17F0F1D
:1046140019D8A6F13003092BD2D81BF0400F03D0D0
:104624000A2101FB0737DFE70A2101FB09394BF0B7
:10463400200BD9E72E2E06D11BF0400F40F09E80B0
:104644004BF0400BD0E76C2E31D02BD8682E36D0EF
:104654006A2E3CD04C2E3AD0002F46F02003B8BF2F
:104664002BF04002A3F16501BCBF1FFA82FB0027B7
:10467400022901D9612B2FD1073525F00705DFF871
:10468400ACA2083507271BF0080F66D00AEB070B0E
:1046940056465E4563D1A4EB0A0A06EB0A02A9EB6F
:1046A40007096FE1742E9FD07A2E9DD0D4E71BF0BA
:1046B400800F18BF4BF4007B4BF0800B94E71BF486
:1046C400807F18BF4BF4007B4BF4807B8CE74BF46A
:1046D400207B89E71F4687E7A6F16301122900F2D0
:1046E400F080DFE811F013004F00EE00EE00EE0062
:1046F400EE004F00EE00EE00EE00EE00EE00FE00D5
:10470400E900EE00EE001B00EE00AF0055F8043B9C
:104714008DF8183001270DF1180AB4E755F804ABE9
:10472400834BBAF1000F08BF9A461BF0400F14BF29
:1047340039464FF0FF31504601F0E5FE0746A2E747
:10474400029B41462020984700280FDB013EB742D8
:10475400F6D34C44A41BB14698E74E46F7E716F847
:10476400010B029B41469847002892DA98F80230E0
:1047740043F0040388F802304FF0FF3420460DB0B4
:10478400BDE8F08F1BF0800F34D01BF4007F2CD0D9
:10479400073525F00705AA4669685AF8080B2BF077
:1047A40010050029ADB237DA404261EB410145F40E
:1047B40080650DF1180B0A235A4601F0B0FEA0EBF8
:1047C4000B0301936B0662D5019B25F001019F4207
:1047D40089B240F3A180002E00F0998015F01002F8
:1047E40040F09C80BB460D4623E0AA465AF8040BD1
:1047F400C117D4E7AA461BF4807F5AF8041B01D1E1
:104804000846F5E71BF4007F15BF48B208B241F330
:10481400C01141F3C031C2E750EA0103C9D11BF012
:10482400400FC6D0002FC4D12BF0110295B2BB4665
:10483400019740F2064115EA01021CBF0BF1010B7E
:1048440000222CE02BF010021FFA82FB0A231BF03B
:10485400800C49D01BF400711DBF073525F00705F6
:10486400AA46AA461ABF5AF8080B69685AF8040BF4
:1048740050EA010545D12BF016051BF0400FADB2EF
:1048840042D0002F40D12BF0170295B2019715F0BA
:10489400100248D0019B002E42D103F1010B2907DD
:1048A4005AD4EB0706D5D9456FDD0199A9EB0B0363
:1048B4005F18CB465B4649E04BF0100B102378267B
:1048C400C5E7782B04D1C6F1780343F01003BEE7A3
:1048D400029B4146252098470028FFF647AF023443
:1048E40047E608230026B2E7AA461BF480715AF86B
:1048F400040BBDD01BF400711ABFC0B2614680B274
:10490400B6E72BF0060295B20DF1180B54E725F02B
:104914001105ADB2BB468CE70D46B8E73B460D46E4
:1049240003F1020BBBE7DDF804B082E7F578000879
:10493400EE780008CDE904324146029B20209847D6
:104944000028FFF613AF049B059A01339945F1DC67
:10495400A4EB0B01CC189B460AB3029B41463020C2
:1049640098470028FFF602AF8EB901342744019B13
:10497400391B994224DC1D465DBB019AA9EB0B0946
:10498400224455461446914435E0019F92E702348F
:1049940041463046029B98470028E7DAE6E640F2B3
:1049A40006410D42E2D015F0020F14BF2B20202047
:1049B40015F4806F04F10104414618BF2D20E9E786
:1049C400029B414630209847002804F10104CEDAC6
:1049D400CCE606AB013D4146585D029B9847002852
:1049E400CADAC3E6029B414620209847002804F116
:1049F4000104FFF6BBAEA9EB0403002BF2DCBFE518
:104A04002DE9F04F89B0804600200292079082463B
:104A14000D4615F8014BACB1202C17D0A4F10903B5
:104A2400042B13D9252C17D007A9404601F0CEFD3D
:104A3400031EC0F2CE80DBB2A3420BD007AA4146CC
:104A440001F0CEFD504609B0BDE8F08F07A94046FD
:104A540001F0CEFD2946DBE74C78252C01F1020557
:104A6400E2D02A2C20D18C78CD1C0126002706E028
:104A74000A2215F8014B46F0020602FB0737A4F19F
:104A84003003DBB2092BF3D916F0020F08BF4FF045
:104A9400FF376C2C33D009D8682C24D06A2C3CD036
:104AA4004C2C35D034B9CDE70026DFE7742C31D057
:104AB4007A2C2FD09F48214601F0C5FD0028C1D093
:104AC40016F00103039303BF029B53F8049B029364
:104AD4004FF000096E2C23D1079A00960023484614
:104AE40001F09BFDB6E72C78682C03D046F0200635
:104AF4000135D7E746F030066C780235D2E72C78DA
:104B04006C2C02D046F00406F2E746F00C06F3E7FC
:104B140046F00C0615F8014BC4E746F00806F9E721
:104B2400632C18D116F0020F08BF012707A94046CD
:104B340001F04CFD00284CDBB9F1000F01D009F85D
:104B4400010B013FF2D1039B002B83D10AF1010A2F
:104B54005FFA8AFA7EE75B2C54D12B785E2B06BF72
:104B640001354FF0010B4FF0000B002407A940461C
:104B740001F02CFD00222E469446114605F1010E4B
:104B840016F8013BFBB1764508D05D2B12D02D2BD6
:104B940004D132B90B4601221946F1E7002A08BFB5
:104BA400194688424FF00002F6DB9842D8BF4FF016
:104BB400010CF1E7002805DBE34511D107AA4146C2
:104BC40001F00EFDACB998F8023013F00C0F3FF46D
:104BD40039AFBAF1000F14BF50464FF0FF3032E73F
:104BE400B9F1000F01D009F8010B013F4FF00104A6
:104BF400BCD1B9F1000F01D13546A4E7002389F8EF
:104C04000030F9E707A9404601F0F2FC0028E0DB98
:104C14006F2C58D031D8642C57D0693C18BF01246C
:104C2400240107A9404601F0D1FC2B2803D02D28EC
:104C340009D146F04006013FC5D007A9404601F01E
:104C4400C5FC0028BFDB30286ED17B1E049306D040
:104C540007A9404601F0BAFC0028049B37DA002774
:104C6400BB46730602D57F426BEB4B0B00963A466C
:104C74005B46484601F0D1FC65E7732C0BD0752CDC
:104C84000CBF0A241024CCE7B9F1000F01D009F8B5
:104C9400010B013F0FD007A9404601F097FC002803
:104CA40009DB202803D0A0F10903042BECD807AAC0
:104CB400414601F095FCB9F1000F3FF444AF0023E5
:104CC40089F800303FE70824ABE70A24A9E740F05D
:104CD4002002782A46F080060ED134F010020ED15C
:104CE400BB1E0493BBD007A9404601F06FFC00280B
:104CF400049BB4DB102402E0002C08BF0824002726
:104D0400BB463928024682BF00F1FF3242F020023E
:104D1400263A303A94420FD807AA414601F060FC83
:104D240032067FF550AF9CE73B46002CE7D10A24BE
:104D3400E5E700BFFD780008A4FB0771D71904FB61
:104D44000B1141F1000B013BCDE9043346F0800621
:104D540087D007A9404601F039FC0028049BD0DA2B
:104D64007FE700BF704783685B681847C069704776
:104D74000023C36170474FF080435B6A4360704710
:104D8400436801EB4101A3EB510343607047704753
:104D9400704770477047704710B52021044601F0F2
:104DA40086FB204610BD10B50C21044601F07FFBA4
:104DB400204610BD10B50821044601F078FB2046BA
:104DC40010BD10B50821044601F071FB204610BD4A
:104DD40010B50C21044601F06AFB204610BD406862
:104DE40001F049BA03460A4600681979012303FA17
:104DF40001F103691B68194218BF82F0010212B164
:104E04008368DB68184783681B69FBE738B5051DB1
:104E1400044601212846FFF7E5FF022001F01CFAB1
:104E240000212846FFF7DEFFE3690133E36138BD63
:104E340000210430FFF7D6BF01210430FFF7D2BFB1
:104E44000C30FFF7CFBF00211430FFF7CBBF012197
:104E54001430FFF7C7BFF0B4034600681979DB8844
:104E6400066987683468DA0754BF43F4B01383F4DF
:104E7400D01301258D4023F48012DB074CBF2C4353
:104E8400AC4334603B68F0BC184738B505464C1E4B
:104E9400631C02D014F8011F01B938BD6868FFF71C
:104EA40062FFF5E743680B44436003680B44036007
:104EB40070470023C0E9003370470068704710B59D
:104EC400C0E900120021C0E902110446018280F801
:104ED40024101022143001F0FCFA204610BD0346C1
:104EE400084661B193F82420032A07D8511C83F89B
:104EF400241003EB8203586101207047002070479F
:104F04000023836003827047407C704738B50123D7
:104F140004464374002594F82420EBB29A4200D846
:104F240038BD04EB83030021586903689B689847E4
:104F34000135F0E738B500240546447495F824207B
:104F4400E3B29A4200D838BD05EB830300215869C7
:104F54000368DB6898470134F0E710B5044600683D
:104F64000368DB68984748B1206803689B689847E2
:104F7400237CE0601BB90123A060237410BDD4E935
:104F840001130B449842627C06D3002AF6D12046D2
:104F9400BDE81040FFF7BABF002AEFD02046BDE8B5
:104FA4001040FFF7C7BF7047704770B590F82030C6
:104FB400044633B390F821601EBB0069FFF7CDFFB0
:104FC400A06803689B6898470546A0680368DB6887
:104FD4009847E0682946FFF765FFA26922B1E369B3
:104FE400C8339A4207D9E361606A0368BDE8704038
:104FF400DB68C82118476068E66103681B69984745
:10500400F2E770BD01B14162704790F8200070472B
:1050140010B50446C068FFF750FF6369984206D391
:105024004FF48073606823840368DB6898472069C1
:10503400FFF76AFF30B10023606884F8203003680A
:10504400DB689847606A0368BDE810401B6918472D
:1050540010B590F8203004467BB190F8213063B944
:10506400406A03689B68984701462046FCF7A2F90A
:105074002046BDE81040FFF7CBBF10BD806A7047E3
:10508400704710B52C21044601F011FA204610BDDA
:10509400816270472DE9F041076BC56A0446DFB1B0
:1050A400406B874218D9FBF741F906463846FBF7AF
:1050B4003DF901463046FBF745FAD4F82880064608
:1050C40041462846FBF780F801463046FBF786F94F
:1050D4004146FBF77BF80546A5632846BDE8F08109
:1050E400D0E90C23934204D20B44934294BF43630C
:1050F40042637047704710B53C21044601F0D7F96C
:10510400204610BD00234363836A8363704700EB2A
:10511400C100408840087047F8B50346FFF7F7FF21
:10512400B0FA80F0C0F11F0003EB800CCA00DCF879
:105134001060171D0C4606328DB256B9012101FAD2
:1051440000F0D9680143D960CCF81040DD539D527A
:10515400F8BDF1000431585AD85303EBC0009E52F5
:10516400C5805D52F4E710B500EBC104E3889942B1
:1051740002F104010AD1012303FA02F2C36823EA0B
:105184000203C360002340F8213010BDA28840F818
:10519400213000EBC20100EBC300CB808280F4E736
:1051A40008B50346FFF7B3FFB0FA80F2C2F11F025D
:1051B4001846BDE80840FFF7D6BF38B50346FFF7E9
:1051C400A6FF0D46044611461846FFF7A0FF03EB61
:1051D400C5050444600068801846FFF798FF014441
:1051E40023F8314038BD38B50546FFF790FF0C462B
:1051F400014405EBC1035B88DA070AD42846FFF7AC
:10520400CFFF21462846FFF782FF22182846FFF7E2
:10521400D4FF35F83410611A05EBC1035B88DB0752
:105224000CD42846FFF7BCFF35F834102246611A27
:105234002846FFF7C2FF35F83430E41A21462846E1
:10524400BDE83840FFF768BF61B100680439091A46
:1052540021F007030344C9085A8822F001025A8046
:10526400FFF7C1BF7047043A2DE9F041CC1D11444A
:1052740024F0070421F007010E1BF708B7FA87F2A0
:10528400C2F12405AD004FF000080735C2F1200239
:10529400ED0804604146A760C4F80C80920004F154
:1052A400100001F016F96B0043F00103638004EB76
:1052B400C5027B1B5900A4F800805180A21924F870
:1052C4003550A2F80280A35304EBC70329465A8839
:1052D40042F001025A802046BDE8F041FFF71CBFAE
:1052E400002070470FB407B504A951F8040B0191CD
:1052F400FCF7B6F803B05DF804EB04B070477047F0
:10530400012801D1EFF30583FEF7F2B801460068E6
:10531400FFF7F6BF00210120FFF7F2BF61B662B6C6
:1053240080F31188BFF36F8F704772B6002383F345
:105334001188BFF36F8FBFF34F8F30BF62B6BFF3D7
:105344006F8F7047202809D9B0F1004F08D8013871
:10535400B0FA80F0C0F11F00400070470820704789
:105364003E20704708B5FCF711FD002008BD012060
:105374008840704700F00302043292000F239340E8
:1053840043EA900010B5C3B29B0003F1804303F5D8
:105394009C33020C9C6892FAA2F2B2FA82F224EADA
:1053A400104091400143996010BD0B68A3F1300295
:1053B400782A82B012D803F1804303F50E3348688B
:1053C4001A6802431A600B6803F1804303F50E3335
:1053D40000201B680193019B02B070476FF08500A9
:1053E400FAE70B68A3F13002782A9FBF03F18043E8
:1053F40003F50E3349681A689DBF8A4300201A607A
:105404006FF085007047012806D0033802288CBF4E
:105414006FF08500002070470020704710B50868C1
:10542400FFF7F1FF002820DB4A68FF2A1CD0D3B223
:1054340003F1804303F50E33C2F342341868C2F318
:10544400042204FA02F220EA02021A604968CBB28A
:1054540003F1804303F50E33C1F302421868C1F32C
:1054640004218A4002431A60002010BD086808B570
:10547400A0F13003782B0AD800F1804000F50E30FB
:105484004B680268934314BF0120022008BDFFF754
:10549400BAFF002814BF01200220F7E770474368D1
:1054A4005B681B690B600020704743685B68586940
:1054B40042400A4042405A610020704743685B689A
:1054C40000209961704743685B6809049961002072
:1054D400704743685A6853694B40536100207047D2
:1054E40010B503699868F8B1884219D1DC68086876
:1054F4009860A14200D1D860002008602AB19A685F
:105504000A60DA68996002B9D960002010E081422B
:1055140006D108682060D8688142EDD1DC60EBE7F1
:10552400044600680028F2D1002AE8D16FF0150083
:1055340010BDF0B544680120676888401E46C2F378
:10554400801327EA00078B403B43636090FAA0F77F
:10555400B7FA87F7D4F808C04FF0030E7F000EFAAD
:1055640007F72CEA070C90FAA0F7B7FA87F7C2F30B
:10557400C1137F00BB4043EA0C03A36090FAA0F37D
:10558400B3FA83F3E7685B000EFA03F327EA030731
:1055940090FAA0F3B3FA83F302F030055B00C2F390
:1055A40041229A403A43202DE26016D107292BD894
:1055B40090FAA0F3226A2BB3B3FA83F39B000F2172
:1055C40001FA03F322EA030290FAA0F3B3FA83F395
:1055D4009B0006FA03F31343236290FAA0F3B3FA91
:1055E40083F3226890FAA0F05B000321B0FA80F004
:1055F4002D0901FA03F3400022EA030385401D4309
:105604002560F0BD2B46D9E7030A616A93FAA3F239
:1056140082B1B2FA82F292000F2793FAA3F3B3FA9B
:1056240083F307FA02F29B0021EA02029E4016432A
:105634006662D2E72A46EEE7F8B512F4003C076941
:1056440006460C46134627D09A071ED55D0740F13F
:1056540082805022D80603F4403518D542F40072F3
:1056640025B1396921FA04F0C00746D518036AD573
:10567400716801234968A3408B6170680023214647
:10568400FFF757FF002D4CD114E01022E2E79906F2
:10569400E6D542F48062E3E7D00302F4403520D536
:1056A400DA0612D5002D46D12B464FF400727068ED
:1056B400FFF73FFF3B6923FA04F2D20731D50122F9
:1056C400A24023EA02033B612BE013F0200004D044
:1056D4004DBB2B464FF48062E9E7B5B92B462A4609
:1056E400E5E715B92B463022E1E7396921FA04F2DE
:1056F40012F0010F4FF030020ED10120A0400143FF
:105704003961BCF1000FB1D106E0396921FA04F224
:1057140012F00102F1D00246706800232146FFF71F
:1057240008FF0020F8BD396921FA04F212F0010FD4
:105734004FF48062E0E7396921FA04F212F0010FB4
:105744004FF40072D8E7590397D50121A1403046A0
:10575400FFF7B9FE91E76FF08500E3E770B50B46FC
:105764008968054611B15E680C6801B970BD8A6824
:105774002A4002D04B68304698471CB12368214622
:105784001C46F2E72346FAE7F8B51F46044640688C
:105794000E461546FFF7CDFE112F07D101212B052B
:1057A40001FA06F104D563685B6899610020F8BDCD
:1057B4002046FFF788FEF9E743680169DB685A6809
:1057C40022F4C0625A605A6822F4C0625A605A686D
:1057D40022F400725A605A6822F480625A6091F886
:1057E4004D201AB95A6822F480725A607047F8B58D
:1057F4004368DC68236823F001032360FFF7DCFFC0
:1058040027686668A368E568E069216A626AD4F873
:1058140000C04CF4004CC4F800C0D4F800C09BB2E3
:105824002CF4004CBFB2B6B243F48043ADB280B2A4
:1058340089B292B2C4F800C027606660A360E560D4
:10584400E06121626262F8BD38B543680569DC68CD
:10585400FFF7B2FF95F84D301BB9236823F001031D
:10586400236038BD034600695B68426CDB688AB11B
:10587400013A42641AB95A6822F480625A60826C0E
:105884001969127821F0FF010A431A61836C01330C
:1058940083647047C26A910742BF1A6842F4007277
:1058A4001A605A69520748BF1B69FEF747B870B5BA
:1058B4000369D3E90D56DC6B024626B10021ADB96C
:1058C40099631CB10AE03CB95DB15C631046FFF713
:1058D400BBFF6FF0040008E005B15E630021D963EB
:1058E400F4E709B9FFF7B0FF002070BD5963E7E79B
:1058F400C3685A6842F480725A605A6842F400726B
:105904005A605A6842F480625A6070472DE9F04147
:105914001F4643680469DD680E4690462046FEF73C
:1059240067F8736863643368A364337AE36287F067
:1059340001070023C4E90C73C4E90E33A36226648F
:10594400A4F824802B6843F001032B602B6823F414
:1059540000632B602B6843F480632B60337A590710
:105964000BD52B689A0541BF23F400731B041B0C51
:105974002B602B6843F480732B60BDE8F0810346F1
:1059840000695B68426CDB68002A3DD0022A21D0A2
:10599400032A2BD0012A2ED11A6822F480621A60BD
:1059A4001A6822F400621A60C26A910742BF1A6838
:1059B40042F400721A605A6822F480625A60426C9F
:1059C400013A4264826C1B691370836C01338364F3
:1059D400FDF7B4BF026C5268022A1DD81A6822F47B
:1059E40080621A601A6842F400621A605A6822F4EB
:1059F40080625A607047013A4264826C1B6913707A
:105A0400836C013383647047C26A920742BF1A6889
:105A140042F400721A60DBE7704710B4436802690D
:105A2400DB685C69E40785B0014630D5106A918C67
:105A340010F0010013D0946AC91101F0060154B9A1
:105A440041F0F00190621A6922F0FF020A431A61E0
:105A540005B010BC704741F0F1010020F2E7106B73
:105A6400490020B11A69C9B222F0FF02EEE71869B1
:105A740041F0010120F0FF00C9B201431961526CE9
:105A8400022AE5D11A6842F400621A60E0E75C6910
:105A9400240705D5196992F8242021F0FF01D5E7E0
:105AA4005C69A40739D5106A116BC00715D5A9B96B
:105AB400906AD0B191625A690192019A9A690192ED
:105AC400019A1A68910541BF22F400721204120C63
